:020000040800F2
:10000000002000203D100008490B00084B0B0008A1
:1000100000000000000000000000000000000000E0
:100020000000000000000000000000004D0B000870
:1000300000000000000000004F0B0008510B0008FA
:100040008D1000088D1000088D1000088D1000081C
:100050008D1000088D1000088D1000088D1000080C
:100060008D1000088D1000088D1000088D100008FC
:100070008D1000088D1000088D1000088D100008EC
:100080008D1000088D100008000000008D10000881
:100090008D100008E50800088D1000088D1000087C
:1000A0008D1000088D1000088D1000088D100008BC
:1000B0008D100008000000008D10000800000000F6
:1000C00003B47146490840004900095E49008E4466
:1000D00003BC7047002243088B4274D303098B4250
:1000E0005FD3030A8B4244D3030B8B4228D3030C08
:1000F0008B420DD3FF22090212BA030C8B4202D3AA
:100100001212090265D0030B8B4219D300E0090AD1
:10011000C30B8B4201D3CB03C01A5241830B8B42DA
:1001200001D38B03C01A5241430B8B4201D34B03C3
:10013000C01A5241030B8B4201D30B03C01A524128
:10014000C30A8B4201D3CB02C01A5241830A8B42AD
:1001500001D38B02C01A5241430A8B4201D34B0296
:10016000C01A5241030A8B4201D30B02C01A5241FA
:10017000CDD2C3098B4201D3CB01C01A52418309AE
:100180008B4201D38B01C01A524143098B4201D3E8
:100190004B01C01A524103098B4201D30B01C01A13
:1001A0005241C3088B4201D3CB00C01A524183088D
:1001B0008B4201D38B00C01A524143088B4201D3BA
:1001C0004B00C01A5241411A00D20146524110461A
:1001D0007047FFE701B5002000F0F0F802BDC0460F
:1001E0000029F7D076E7704703460B437FD40022FF
:1001F00043088B4274D303098B425FD3030A8B42BB
:1002000044D3030B8B4228D3030C8B420DD3FF2224
:10021000090212BA030C8B4202D31212090265D0F2
:10022000030B8B4219D300E0090AC30B8B4201D3A5
:10023000CB03C01A5241830B8B4201D38B03C01AEC
:100240005241430B8B4201D34B03C01A5241030B63
:100250008B4201D30B03C01A5241C30A8B4201D314
:10026000CB02C01A5241830A8B4201D38B02C01ABF
:100270005241430A8B4201D34B02C01A5241030A36
:100280008B4201D30B02C01A5241CDD2C3098B421B
:1002900001D3CB01C01A524183098B4201D38B0198
:1002A000C01A524143098B4201D34B01C01A52413B
:1002B00003098B4201D30B01C01A5241C3088B4280
:1002C00001D3CB00C01A524183088B4201D38B006B
:1002D000C01A524143088B4201D34B00C01A52410D
:1002E000411A00D201465241104670475DE0CA0FE4
:1002F00000D04942031000D34042534000229C46A4
:1003000003098B422DD3030A8B4212D3FC228901AD
:1003100012BA030A8B420CD3890192118B4208D383
:10032000890192118B4204D389013AD0921100E0E5
:100330008909C3098B4201D3CB01C01A52418309F9
:100340008B4201D38B01C01A524143098B4201D326
:100350004B01C01A524103098B4201D30B01C01A51
:100360005241C3088B4201D3CB00C01A52418308CB
:100370008B4201D38B00C01A5241D9D243088B4221
:1003800001D34B00C01A5241411A00D201466346C4
:1003900052415B10104601D34042002B00D5494228
:1003A000704763465B1000D3404201B5002000F067
:1003B00005F802BD0029F8D016E770477047C0461F
:1003C00010B5064C2378002B07D1054B002B02D02B
:1003D000044800E000BF0123237010BD6C00002022
:1003E00000000000E8190008044B10B5002B03D0F2
:1003F0000349044800E000BF10BDC04600000000F3
:1004000070000020E8190008F0B5DE4657464E4659
:100410004546E0B58BB01822002104A800F058FE34
:100420005D4B5A698021C9030A435A615A690A40DF
:100430000392039A5A69802189020A435A615A69D0
:100440000A400292029A5A698021C9020A435A61FB
:100450005B690B400193019B504D0126AE62022364
:100460009A46AB6202339946AB6204339846AB625C
:1004700008339B46AB621033AB624022AA628021F4
:10048000A962049608969027FF0504A80100380089
:1004900000F072FD5046049000240594089604A8CC
:1004A0000100380000F068FD484604900594089665
:1004B00004A80100380000F05FFD40460490059458
:1004C000089604A80100380000F056FD0496059631
:1004D00006940794089404A80100280000F04CFD3D
:1004E00050460490059606940794089404A80100C9
:1004F000280000F041FD48460490059606940794B4
:10050000089404A80100280000F036FD404604903D
:10051000059606940794089404A80100280000F0AA
:100520002BFD58460490059606940794089404A859
:100530000100280000F020FD202304930596069476
:100540000794089404AB1900280000F015FD402220
:100550000492059606940794089404AB19002800A9
:1005600000F00AFD802104910596069407940894F2
:1005700004A9280000F000FD80239B00049305944B
:10058000089404A9280000F0F7FC0BB0F0BCBB46AF
:10059000B246A946A046F0BD001002400004004843
:1005A00082B0430018180023019304E0C046C046FF
:1005B000019B01330193019B8342F7D302B0704743
:1005C00070B51420FFF7ECFF0A4CA36980252D02BB
:1005D0002B43A3611420FFF7E3FFA26980231B06CE
:1005E0001343A3611420FFF7DBFFA3691D43A5613B
:1005F00070BDC0460008004810B50400454A916926
:100600008023DB010B43936143B2002B46DB902236
:10061000D205916980231B060B439361630645D580
:100620009022D205916980235B010B439361A3065D
:1006300044D5394A916980239B000B439361E306BB
:1006400043D5354A916980235B000B439361FFF7E3
:10065000B7FF230740D59022D205916980231B0262
:100660000B43936163073FD59022D20591698023A4
:100670005B010B439361A3073ED5274A9169802311
:100680009B000B439361E4073DD5234A9169802386
:100690005B000B439361FFF793FF10BD9022D205DF
:1006A000916980231B020B439361B7E79022D20527
:1006B000916980235B050B439361B8E7164A916902
:1006C00080239B040B439361B9E7134A916980230C
:1006D0005B040B439361BAE79022D20591698023B2
:1006E0001B060B439361BDE79022D20591698023DD
:1006F0005B050B439361BEE7074A916980239B0426
:100700000B439361BFE7044A916980235B040B4369
:100710009361C0E7000800480004004870B5050078
:10072000002403E0FFF768FF0134E4B2285D0028ED
:10073000F8D170BD10B50400474A91698023DB05EC
:100740000B43936143B2002B49DB9022D2059169A0
:1007500080231B060B439361630648D59022D20584
:10076000916980235B010B439361A30647D53B4A04
:10077000916980239B000B439361E30646D5374A7A
:10078000916980235B000B439361FFF719FF2307F7
:1007900043D59022D205916980231B020B439361BC
:1007A000630742D59022D205916980235B010B43F8
:1007B0009361A30741D5294A916980239B000B438C
:1007C0009361E40740D5254A916980235B000B4380
:1007D0009361FFF7F5FE2248FFF7E2FE10BD90227D
:1007E000D205916980231B020B439361B4E79022E9
:1007F000D205916980235B050B439361B5E7174AE6
:10080000916980239B040B439361B6E7134A916976
:1008100080235B040B439361B7E79022D205916973
:1008200080231B060B439361BAE79022D20591699E
:1008300080235B050B439361BBE7084A91698023E2
:100840009B040B439361BCE7044A916980235B04DA
:100850000B439361BDE7C046000800480004004810
:10086000B80B000010B51B4B5969802292020A4355
:100870005A6159698022D2020A435A615969802219
:1008800012030A435A619022D20511688223DB05C4
:100890000B431360104A1168A023DB020B43136063
:1008A0000E4A1168A023DB050B4313600C48FFF7C9
:1008B00077FE3320FFF73EFF3220FFF73BFF0C208F
:1008C000FFF738FF2820FFF735FF0120FFF732FF41
:1008D00010BDC04600100240000400480008004857
:1008E0003075000070B586B0154D280000F017FA7D
:1008F000144E00221449300000F0CFF9134B144C71
:100900002278995C0122300000F0C7F92278013288
:10091000104901A800F0BCFBC020FFF70BFF01A8A5
:10092000FFF7FCFE207801300921FFF743FD21701D
:100930002A68094B1B68D362EB6006B070BDC046E5
:100940008C00002000040048FFFF0000040000208D
:1009500088000020001A00080000002072B6FEE7A0
:1009600010B50C480C4B03600C4B436000238360B4
:100970000B4AC260036143618033836100F0CEFAA9
:10098000002804D1074B802292031A6010BDFFF7A4
:10099000E5FFC0468C000020004401403F1F0000DE
:1009A000E703000000E100E010B51A4A13680121D6
:1009B0008B431360174B1B68DB07FBD4164A136885
:1009C00001210B431360144B1B689B07FBD5124B93
:1009D0001A68F8218A4378390A431A605A687031D4
:1009E0008A435A605A680D490A405A605A6803217E
:1009F0008A435A60084B5B680C221A42FAD10848B5
:100A000000F016FB032000F0A9F8002800D110BD6B
:100A1000FFF7A4FF0020024000100240FFF8FFFF94
:100A200000127A0010B500F0C1F8FFF7BDFFFFF724
:100A3000EBFCFFF795FFFFF715FF0120FFF77AFEAC
:100A40002348FFF76BFE234800F02EF909E0224B04
:100A5000FA2252001A600130FFF76CFE1F48FFF7C0
:100A60005DFE90200121C00500F010F90028EED0B5
:100A700090200221C00500F009F900280AD1164B88
:100A8000FA22D2001A600130FFF754FE1448FFF733
:100A900045FEE6E790200421C00500F0F7F80028A5
:100AA0000AD10D4BFA2292001A600130FFF742FE84
:100AB0000C48FFF733FED4E790200821C00500F072
:100AC000E5F80028CDD1084B00221A70C9E7C046CE
:100AD0000C1A00088C00002000000020181A0008E2
:100AE000241A0008301A00088800002082B00A4B3F
:100AF000996901221143996199690A400092009A0B
:100B0000DA69802149050A43DA61DB690B40019308
:100B1000019B02B07047C0460010024082B00268DC
:100B2000074B9A4201D002B07047064B9A69802168
:100B300089020A439A619B690B400193019BF2E78A
:100B40000044014000100240FEE7FEE77047704796
:100B500010B500F03BF810BD7047000010B5040060
:100B60000F4B1978FA208000FFF7B4FA01000D4B03
:100B70001868FFF7AFFA00F085F800280DD1032CB4
:100B800001D901200AE0013000222100404200F09A
:100B900075F8054B1C60002000E0012010BDC04628
:100BA00014000020100000201800002010B5064A94
:100BB000136810210B4313600320FFF7CFFFFFF7EB
:100BC00095FF002010BDC04600200240034A116876
:100BD000034B1B785B1813607047C046D40000209D
:100BE0001400002070B5002811DB8308134DC033BA
:100BF0009B005C5903221040C000FC321600864066
:100C0000B44389010A40824022435A5170BD0F23E8
:100C10000340083B9B0806339B00094A9446634403
:100C20005C6803221040C000FC3215008540AC43D4
:100C300089010A40824022435A60E7E700E100E070
:100C400000ED00E0013880235B0498420FD2094A8E
:100C500050600948036A1B021B0AC02109060B43A6
:100C60000362002393600733136000207047012064
:100C7000FCE7C04610E000E000ED00E010B5FFF733
:100C8000B1FF10BD10B5FFF7DDFF10BD03690B42CA
:100C900001D0012070470020FCE7002A01D08161CB
:100CA00070478162FCE700003D23C35C012B26D125
:100CB0003C330222C2540268D36801210B43D36043
:100CC0000368114A93420FD08022D20593420BD081
:100CD0000E4A934208D00E4A934205D01A68012169
:100CE0000A431A6000200BE0996807220A40062A8E
:100CF00007D01A6801210A431A60002000E0012091
:100D000070470020FCE7C046002C01400004004072
:100D1000004001407047704770477047704710B5FA
:100D20000400026813699B070FD5D3689B070CD595
:100D300003235B4213610433037703689B699B07BA
:100D400063D0FFF7E9FF00232377226813695B076D
:100D500012D5D3685B070FD505235B4213610733B8
:100D6000237723689A69C0239B001A4253D020003E
:100D7000FFF7D2FF00232377226813691B0710D5E2
:100D8000D3681B070DD509235B4213610D3323770D
:100D90002368DB699B0745D02000FFF7BDFF0023D8
:100DA000237722681369DB0612D5D368DB060FD5DB
:100DB00011235B421361193323772368DA69C02357
:100DC0009B001A4235D02000FFF7A6FF00232377AF
:100DD00022681369DB0702D5D368DB0730D42268A9
:100DE00013691B0602D5D3681B0630D42268136929
:100DF0005B0602D5D3685B0630D4226813699B0674
:100E000002D5D3689B0630D410BDFFF784FF2000C5
:100E1000FFF783FF97E72000FFF77DFF2000FFF734
:100E20007CFFA7E72000FFF776FF2000FFF775FFA4
:100E3000B5E72000FFF76FFF2000FFF76EFFC5E763
:100E400002235B4213612000FFF764FFC7E78123A1
:100E50005B421361200000F08EF8C7E741235B423C
:100E600013612000FFF75AFFC7E721235B4213619C
:100E7000200000F07FF8C7E70368214A904206D0BF
:100E80008022D205904202D01E4A904203D17022A5
:100E900093434A6813431A4A904212D08022D205E3
:100EA00090420ED0174A90420BD0174A904208D079
:100EB000164A904205D0164A904202D0154A9042F6
:100EC00003D1154A1A40CB681343802293434A69E1
:100ED000134303608B68C3620B688362084B9842BC
:100EE00008D00A4B984205D0094B984202D0094BD2
:100EF000984201D10B690363012343617047C046E7
:100F0000002C01400004004000200040004001404F
:100F10000044014000480140FFFCFFFF70B5041E83
:100F200026D03D23C35C002B1CD03D2502236355F6
:100F3000210001C9FFF7A0FF01234622A354083A6C
:100F4000A3540132A3540132A3540132A3540132F9
:100F5000A3540132A3540132A3540132A354635564
:100F6000002070BD3C330022C254FFF7D7FDDCE700
:100F70000120F6E770477047F0B5002216E00B69D4
:100F80009C46C4682B006B435E00F618F743B443DD
:100F900066465E433443C4604C68022C26D04D68DC
:100FA00004683C406B432343036001320C68230018
:100FB000D3403BD00123934025001D401C42F4D078
:100FC0004B68013B012BDAD88F6883682C006C4397
:100FD00066003619B3437C43234383600E68CC68B4
:100FE0004368B343744323434360C8E7FF2D0DD8E0
:100FF0004C69A446066A1C006C436C4325012D1BFA
:10100000AE4365466C4334430462C8E74C69A4466A
:10101000466A2D0A2C006C436C436C4325012D1B42
:10102000AE4365466C4334434462B8E70020F0BDEC
:10103000014B18607047C046100000200D488546DF
:10104000FFF78AFD0C480D490D4A002302E0D458F1
:10105000C4500433C4188C42F9D30A4A0A4C002302
:1010600001E013600432A242FBD300F039F8FFF72D
:10107000D9FCFEE700200020000000206C000020CA
:10108000781A00086C00002024020020FEE700000F
:101090000EB400B50B499CB01DAB029006900791B1
:1010A00004910948094904CB0591006802A90193FC
:1010B00000F092F90022029B1A701CB008BC03B029
:1010C0001847C046FFFFFF7F1C0000200802FFFFFB
:1010D00003008218934200D1704719700133F9E779
:1010E00070B500260C4C0D4D641BA410A64209D10E
:1010F000002600F079FC0A4C0A4D641BA410A6429D
:1011000005D170BDB300EB5898470136EEE7B30048
:10111000EB5898470136F2E7701A0008701A000879
:10112000741A0008701A00087047704770B50500FF
:101130000C1E10D0043C2368002B00DAE4182800B1
:1011400000F0DAF81D4A1368002B05D163601460C3
:10115000280000F0D9F870BDA34208D920682118F2
:101160008B42F3D119685B6809182160EEE71A0019
:101170005B68002B01D0A342F9D911685018A04236
:101180000BD120680918501811608342E0D118680B
:101190005B68411811605360DAE7A04202D90C2362
:1011A0002B60D5E7206821188B4203D119685B6852
:1011B0000918216063605460CAE7C0461C02002021
:1011C00070B50F4E0D0031680400002902D100F007
:1011D0009FFB30602900200000F09AFB431C03D1E4
:1011E00001256D42280070BD0323C51C9D43A84204
:1011F000F8D0291A200000F08BFB0130F2D1EFE784
:10120000180200200323F7B5CD1C9D4308350600C6
:101210000C2D34D20C25A94233D8300000F06CF8E4
:10122000344F3B681C00002C2FD129003000FFF701
:10123000C7FF0400431C58D13C682100002949D154
:10124000002C4CD023683000E318019300F060FBC1
:10125000019B834243D123683000ED1A2900FFF738
:10126000AFFF01303BD023685B1923603B68002B44
:101270003DD05A68A24230D100225A6012E0002DBF
:10128000C9DA0C2333600020FEBD2168491B1ED43F
:101290000B2917D962192560A34211D13A606368FE
:1012A00011605360300000F02FF8200007220B304F
:1012B000231D9043C21A9842E6D01B1AA350E3E7BD
:1012C0005A60ECE76268A342D7D13A60EAE72300AC
:1012D0006468A8E70C004968B0E71300C7E70C236F
:1012E0003000336000F010F8CDE70560DAE75B60AE
:1012F000FFDEC0461C02002010B50248FFF714FFB5
:1013000010BDC0461402002010B50248FFF70DFFC3
:1013100010BDC04614020020F0B58E6885B01F00D5
:101320000C000B6802900392BE4230D80C21625E22
:101330009021C9000A4228D0032021695B1A019339
:10134000636943430198DD0FED187B1C1B186D107A
:10135000AB4200D91D00520528D529000298FFF79D
:1013600051FF061E2CD0019A216900F0EEFAA289E5
:10137000184B1A4080231343A381019B2661F61862
:1013800026603E006561ED1AA560BE4200D93E00B0
:1013900032000399206800F0A7FA0020A3689B1B85
:1013A000A36023689B19236005B0F0BD2A00029852
:1013B00000F0D4FA061EE0D121690298FFF7B6FECC
:1013C0000C230120029A40421360A2893433134354
:1013D000A381E9E77FFBFFFFF0B5A1B003901D00FB
:1013E0008B890F0016001B0611D50B69002B0ED13F
:1013F0004021FFF707FF38603861002805D10C2332
:10140000039A136001204042CFE040237B61002318
:1014100008AC6361203363761033A37607953500FB
:101420002B78002B01D0252B48D1AB1B0593B5425F
:101430000BD0320039000398FFF76EFF013000D166
:10144000AEE06369059A9B1863612B78002B00D18D
:10145000A6E0012200235242626004A954325218CD
:101460006E1C2360E360A3601370A365544B0522D8
:1014700018003178059300F05DFA751C00281FD123
:101480002268D30604D5532304A95B1820211970C0
:10149000130704D5532304A95B182B211970337843
:1014A0002A2B16D0350000210A20E3682A786E1C0A
:1014B000303A092A50D9002911D117E00135AFE798
:1014C000059B2268C01A0123834013432E0023602A
:1014D000CCE7079B191D1B680791002B01DB0B93C1
:1014E00004E05B42E3600223134323602B782E2B3E
:1014F0000CD16B782A2B34D1079B02351A1D1B683F
:101500000792002B01DA01235B4209932D4E03223F
:101510003000297800F00EFA002806D04023801B06
:101520008340226801351343236029780622264828
:101530006E1C217600F0FEF9002838D0234B002BDA
:1015400022D10722079B073393430833079363692C
:10155000049A9B18636162E74343350001219B189D
:10156000A4E700230A201900013563602A786E1C65
:10157000303A092A03D9002BC8D00991C6E7414364
:10158000350001238918F1E707AA009221003A00EB
:101590000F4B039800E000BF0490049B0133D6D1A9
:1015A000BB890D985B0600D52CE721B0F0BD07AADA
:1015B000009221003A00064B039800F07BF8EBE71D
:1015C0003A1A0008401A0008441A000800000000F7
:1015D00019130008F7B5160001938A680B690C000F
:1015E0000090934200DA13002200336043321278F5
:1015F000002A01D00133336023689B0602D533688B
:10160000023333602268062315001D401A4227D09A
:10161000230043331B785A1E93412268920630D42C
:10162000220001990098089D4332A847013025D037
:101630000622236800251340042B05D13368E56892
:10164000ED1AEB43DB171D40A3682269934201DDCD
:101650009B1AED180026B54220D1002010E001357C
:10166000E36832689B1AAB42D2DD22000123019964
:101670000098089F1932B8470130F0D1012040424C
:10168000FEBD3020E1184331087021005A1C45315D
:101690000978A218433202331170C1E722000123F6
:1016A00001990098089F1A32B8470130E6D00136F8
:1016B000D1E70000F0B58BB006920A0043320793E1
:1016C000059004920A7E0C00109B782A09D8622AA1
:1016D0000BD8002A00D1C8E081490391582A00D1D3
:1016E0009CE0250042352A7022E01000633815285E
:1016F000F7D8FEF7E5FC16001F00F6FFF6FFF6FF31
:10170000F6FF1F00F6FFF6FFF6FFF6FFAD004F00F5
:101710008C00F6FFF6FFBE00F6FF4F00F6FFF6FF67
:10172000900025001A684235111D196013682B704E
:101730000123ACE018680968021D0D061FD5066874
:101740001A60674A0A2761680392002E35DA23007F
:101750002D2043331870A160002916DA0A2776423B
:101760000392049D30003900FEF73AFD039B013DD2
:101770005B5C2B70330006009F42F3D92AE00668B9
:101780001A604906DDD536B2DBE7042123688B43B6
:101790002360E3E70868196840C9050602D44006DB
:1017A00000D5B6B219604E4B0A2703936F2A00D1B9
:1017B000023F2300002243331A706368A360002BAA
:1017C000CFDB042122688A432260002EC9D1049D08
:1017D000002BC6D1082F09D12368DB0706D5626824
:1017E00023699A4202DC3023013D2B70049B5B1B72
:1017F0002361079B210000930598069B09AAFFF728
:10180000E9FE013048D1012040420BB0F0BD20225A
:1018100009680A4322607822324903912100453148
:101820000A701968226840C9100602D4500600D513
:10183000B6B21960D30702D5202313432360002ECC
:1018400001D01027B5E72022236893432360F8E7EF
:101850001A680D68101D4969186013682E0601D5B5
:10186000196002E06D06FBD519800023049D2361F9
:10187000BFE71A68111D1960156800212800626809
:1018800000F058F8002801D0401B606063682361B5
:101890000023049A1370ACE72A002369069905987F
:1018A000079DA8470130AED023689B0715D4099B3C
:1018B000E0689842A9DA1800A7E7220001230699F8
:1018C0000598079E1932B04701309CD00135E36876
:1018D000099A9B1AAB42F0DCE9E70025F7E7C0461E
:1018E0004B1A00085C1A000810B5884206D800237D
:1018F0009A4208D0CC5CC4540133F9E78B18984263
:10190000F5D2013A00D210BD8B5C8354F9E7000098
:10191000002370B5064D040008002B6000F056F857
:10192000431C03D12B68002B00D0236070BDC04640
:1019300010020020C9B28218904201D100207047E5
:1019400003788B42FBD00130F6E7002310B59A42B2
:1019500000D110BDCC5CC4540133F8E7F7B50600E4
:101960000C001500002905D11100FFF74BFC040005
:101970002000FEBD002A03D1FFF7D8FB0024F7E7C3
:1019800000F01BF80700854202D84308AB42EFD3B2
:1019900029003000FFF736FC01900028EED02A0025
:1019A000BD4200D93A0021000198FFF7CEFF210087
:1019B0003000FFF7BBFB019CDAE70B1F1B68181F09
:1019C000002B01DA0B58C01870470000044A0300CE
:1019D0001068002802D0C318136070470148FAE766
:1019E0002002002028020020F8B5C046F8BC08BC40
:1019F0009E467047F8B5C046F8BC08BC9E46704786
:101A00005061747465726E3A2025640044656C619F
:101A1000792069732031730044656C61793A203014
:101A20002E35730044656C61793A203273000000F2
:101A300044656C61793A20317300232D302B2000EE
:101A4000686C4C0065666745464700303132333478
:101A50003536373839414243444546003031323318
:101A600034353637383961626364656600000000DA
:041A7000E90300087E
:041A7400C1030008A2
:101A7800E8030000E9D2A44890204080000000005C
:101A880000127A000100000004000000200000207D
:101A980000000000D800002040010020A80100201C
:101AA800000000000000000000000000000000002E
:101AB800000000000000000000000000000000001E
:101AC800000000000000000000000000000000000E
:0C1AD80000000000000000000000000002
:040000050800103DA2
:00000001FF
