:020000040800F2
:1000000000200020F5010008CB010008CD01000808
:1000100000000000000000000000000000000000E0
:10002000000000000000000000000000CF010008F8
:100030000000000000000000D1010008D30100080A
:100040004502000845020008450200084502000874
:100050004502000845020008450200084502000864
:100060004502000845020008450200084502000854
:100070004502000845020008450200084502000844
:100080004502000845020008000000004502000883
:100090004502000845020008450200084502000824
:1000A0004502000845020008450200084502000814
:1000B00045020008000000004502000800000000A2
:1000C00010B5064C2378002B07D1054B002B02D02E
:1000D000044800E000BF0123237010BD040000208D
:1000E0000000000090020008044B10B5002B03D064
:1000F0000349044800E000BF10BDC04600000000F6
:1001000008000020900200080020002011010008D3
:1001100023484169234A1143416123485521C16065
:100120002249234A0A60002200F001F810E01E482C
:1001300004690F252C400F2C20D00E2C0ED00D2C36
:1001400010D00B2C12D0072C03D00C2C12D07047DF
:1001500018E01A480168002914D0E5E7023200F0DF
:1001600017F80FE0013200F017F80BE0AA230F494F
:100170004B61D9E7023200F00FF803E0013200F0E2
:1001800007F8FFE7FF231A40FFE708494A61CBE77A
:1001900008480138FDD1704707480138FDD1704744
:1001A0000010024000000600000000480004004863
:1001B00055550000C05C1500C02709000000000074
:1001C00010B5FFF7A5FF002010BDFEE7FEE7704762
:1001D000704710B500F002F810BD7047034A11686F
:1001E000034B1B785B1813607047C046200000204B
:1001F000000000200D488546FFF7EFFF0C480D4931
:100200000D4A002302E0D458C4500433C4188C4271
:10021000F9D30A4A0A4C002301E013600432A242D7
:10022000FBD300F011F8FFF7CBFFFEE70020002022
:100230000000002004000020B0020008040000209C
:1002400024000020FEE7000070B500260C4C0D4D88
:10025000641BA410A64209D1002600F019F80A4C2C
:100260000A4D641BA410A64205D170BDB300EB5823
:1002700098470136EEE7B300EB5898470136F2E7AE
:10028000A8020008A8020008AC020008A8020008A2
:10029000F8B5C046F8BC08BC9E467047F8B5C046E5
:0802A000F8BC08BC9E46704743
:0402A800E900000861
:0402AC00C100000885
:0402B0000100000049
:04000005080001F5F9
:00000001FF
